S013000050726F6A656374436F64652E73726563BF
S1130000BAC07CC1D3C0D2C0D1C0D0C0CFC0CEC0D2
S1130010CDC0CDC0CBC0CAC0C9C0C8C0C7C0C6C08F
S1130020C5C008000000BE922449123EABAAAA2A09
S1130030BECDCCCC4C3E00000080BEABAAAAAA3EEA
S113004000000000BF000000803F00000000000826
S11300504178D3BB4387D1133D190E3CC3BD4282C3
S1130060AD2B3E68EC8276BED98FE1A93E4C80EF81
S1130070FFBE01C4FF7F3F000000000000407A1073
S1130080F35A00A0724E18090010A5D4E80000E845
S11300907648170000E40B54020000CA9A3B0000A3
S11300A000E1F505000080969800000040420F0032
S11300B00000A08601000000102700000000E803F3
S11300C0000000006400000000000A0000000000BE
S11300D00100000000002C76D888DC674F0823DF7D
S11300E0C1DFAE59E1B1B796E5E3E453C63AE65150
S11300F0997696E8E6C28426EB898C9B62ED407C77
S11301006FFCEFBC9C9F40F2BAA56FA5F490055A12
S11301102AF75C936B6CF9676DC11BFCE0E40D4737
S1130120FEF520E6B500D0ED902E0300943577055A
S11301300080841E080000204E0A000000C80C3312
S11301403333330F986E12831141EF8D2114893BA1
S1130150E65516CFFEE6DB18D1844B381BF77C1D21
S1130160901DA4BBE424203284725E228100C9F174
S113017024ECA1E53D2711241FBECFE5D2E0DEBF6C
S1130180CDBF10E0A0E6B0E0EAECF6E102C00590D5
S11301900D92AA3DB107D9F720E0AAEDB0E001C065
S11301A01D92AB3FB207E1F7C4D28DCA29CF1F928B
S11301B00F920FB60F9211242F933F934F935F9397
S11301C06F937F938F939F93AF93BF93EF93FF931B
S11301D08CB18D3011F08A3099F58091DA009091CC
S11301E0DB00892B41F1E091DE00F091DF00E25168
S11301F0FF4F10824091DE005091DF008091DA00C1
S11302009091DB00481B590B435F5F4F9A01A5ECAB
S1130210BEE4C8D796958795969587956DE0689FB7
S11302209001699F300D1124CA01821B930B909396
S1130230DD008093DC001092DB001092DA004DC0E8
S1130240E091DE00F091DF00E251FF4F80834091A6
S1130250DE005091DF004F5F5F4F9A01A5ECBEE4D2
S1130260A1D796958795969587956DE0689F90019F
S1130270699F300D1124CA01821B930B9093DF00F8
S11302808093DE008091DA009091DB000D9750F4AA
S11302908091DA009091DB0001969093DB008093CB
S11302A0DA001BC04091DC005091DD004F5F5F4FCE
S11302B09A01A5ECBEE476D7969587959695879591
S11302C06DE0689F9001699F300D1124CA01821B63
S11302D0930B9093DD008093DC00FF91EF91BF912D
S11302E0AF919F918F917F916F915F914F913F91CA
S11302F02F910F900FBE0F901F9018951F920F9281
S11303000FB60F9211244F935F936F937F938F9344
S11303109F93AF93BF938091E100811110C08CB57E
S11303209DB5A0E0B0E08093EA009093EB00A09329
S1130330EC00B093ED0081E08093E10055C08CB5F2
S11303409DB5A0E0B0E08093E6009093E700A09311
S1130350E800B093E9001092E1004091E60050916A
S1130360E7006091E8007091E9008091EA009091C3
S1130370EB00A091EC00B091ED00481759076A0713
S11303807B0788F48091E6009091E700A091E80053
S1130390B091E90011968093E6009093E700A09352
S11303A0E800B093E9008091E6009091E700A09105
S11303B0E800B091E9004091EA005091EB006091AF
S11303C0EC007091ED00841B950BA60BB70B80938A
S11303D0E2009093E300A093E400B093E500109250
S11303E0E10081E08093E000BF91AF919F918F91F4
S11303F07F916F915F914F910F900FBE0F901F905F
S1130400189581E08EBD089511BA80E48BBF83E016
S113041085BF089510BC83E389B982E08BB988E96C
S11304208AB986E880BD08955D9BFECF8CB9089596
S11304300F931F93CF93DF938C01C0E0D0E0F801BA
S1130440EC0FFD1F8081F0DF2196C031D1053CF413
S1130450FE013197E00FF11F80818A3081F7DF912F
S1130460CF911F910F9108959C01613039F417B811
S113047080E88BBB82E087B917B82EC0623039F4AC
S113048017B880EC8BBB82E087B917B825C0662308
S113049019F1633039F417B887E88BBB82E087B968
S11304A017B81AC0643039F417B887EC8BBB82E0F4
S11304B087B917B811C0653039F417B889E88BBB10
S11304C082E087B917B808C0663031F417B889ECF0
S11304D08BBB82E087B917B881ED90E00197F1F703
S11304E000C0000090E081E087B9F901E90FF11D37
S11304F080818BBB83E087B917B884E38A95F1F7D1
S11305009F5FF901E90FF11D8081882311F090317B
S113051050F30895CF93DF93EC019923B4F566E08B
S11305208CEC90E0A1DF279617B880EC8BBB82E0BF
S113053087B917B886EE90E00197F1F700C0000084
S113054080E00BC091E097B990E29BBB93E097B930
S113055017B894E39A95F1F78F5F282F30E02C17A2
S11305603D0784F4873070F4209761F70BC091E065
S113057097B99FEF9BBB93E097B917B894E39A950B
S1130580F1F78F5F873098F344C0009749F466E031
S11305908CEC90E069DF62E08CEC90E065DF39C0C0
S11305A018161906B4F562E08CEC90E05DDF17B81C
S11305B089EC8BBB82E087B917B886EE90E001978F
S11305C0F1F700C0000080E00BC091E097B99FEF05
S11305D09BBB93E097B917B894E39A95F1F78F5FB3
S11305E0282F30E02C173D0784F4873070F42097CF
S11305F061F70BC091E097B990E29BBB93E097B988
S113060017B894E39A95F1F78F5F873010F4209729
S113061089F7DF91CF91089517B888E38BBB82E007
S113062087B917B884E38A95F1F7089517B88CE071
S11306308BBB82E087B917B884E38A95F1F70895F4
S113064017B881E08BBB82E087B917B88AE396E0DC
S11306500197F1F700C00000089517B88BBB82E042
S113066087B917B884E38A95F1F7089581EF93EA7F
S11306700197F1F700C00000CFDFCEDFD7DFE0DF66
S113068086E0EBDF08950F931F93CF93DF93CDB7ED
S1130690DEB72A970FB6F894DEBF0FBECDBF8E012A
S11306A00F5F1F4F22E044E089D580E090E012C044
S11306B0E1E0F0E0EC0FFD1FE80FF91F20812111AC
S11306C008C0E1E0F0E0EC0FFD1FE80FF91F2AE09D
S11306D0208301968A3091055CF3CE010196A8DE51
S11306E02A960FB6F894DEBF0FBECDBFDF91CF912F
S11306F01F910F91089580E090E0DC01E9E1F4E0BE
S11307003197F1F70196A11DB11D2091E000213030
S113071029F089319105A105B10580F31092E0001B
S11307206091E2007091E3008091E4009091E50013
S11307300895CF93DF93CDB7DEB7C152D1400FB642
S1130740F894DEBF0FBECDBFFE01319688E2DF0113
S11307501D928A95E9F780E090E00CC0E9E2F0E0B0
S1130760EC0FFD1FE80FF91F1082FC01E251FF4F4F
S1130770108201968D3091058CF384E2E0E6F0E07E
S1130780DE01D69601900D928A95E1F780E3E4E8C4
S1130790F0E0DE01A65ABF4F01900D928A95E1F771
S11307A0E12CF12C48C0F801EE0FFF1FEE0FFF1FE4
S11307B02AE530E02C0F3D1FE20FF31F808091806B
S11307C0A280B38061E070E00E2C02C0660F771F38
S11307D00A94E2F7072E000C880B990B02D3A501AB
S11307E0940104D49B01AC0160E175E180E89AE4D2
S11307F062D2C9D2F801EE0FFF1FE00FF11FEE0D18
S1130800FF1DEE0FFF1FEE0FFF1FAAE8B0E0AC0FB5
S1130810BD1FEA0FFB1F60837183828393830F5F85
S11308201F4F02C000E010E00C3011050CF4BBCFE8
S1130830BFEFEB1AFB0A23E0E216F1049CF38FEFFF
S113084084BB93E096B98ABB1BBAF894DDDDD9DD8D
S113085083E390E0DFDD0ADF61E084EB90E004DE17
S11308607894612C712C00E010E0C25EDE4F188297
S1130870CE51D140C15EDE4F1882CF51D140C05E0F
S1130880DE4F1882C052D140CF5DDE4F1882C15274
S1130890D140212C312C2FDF6B017C016E387A433F
S11308A08105910550F018C026DFC60ED71EE81E3C
S11308B0F91E4FEFA41AB40A02C0A12CB12C89E08E
S11308C0A816B1048CF3C701B6012AE030E040E079
S11308D050E046D469017A010F2EF8EE8F2EFDEF19
S11308E09F2EA12CB12CF02D40E050E036C0C90160
S11308F0880F991F820F931F840F951F880F991FCC
S1130900880F991FEAE8F0E0EC0FFD1FE80FF91FCC
S113091080819181A281B381BC016C197D09CB01D5
S1130920992324F488279927861B970B092E000CFA
S1130930AA0BBB0B88159905AA05BB0520F43A013F
S113094089014C015D012F5F3F4F02C020E030E080
S11309502C30310564F24F5F5F4F43305105B4F3DF
S11309605801AA0CBB1CA00EB11E64E086E390E003
S11309708C0F9D1F8A0D9B1D77DDF501E60DF71D7C
S1130980EE0FFF1FEE0FFF1FAAE8B0E0AC0FBD1F74
S1130990EA0FFB1F608171818281938120D2C65E40
S11309A0DE4F688379838A839B83CA51D140C70110
S11309B0B60115D24B015C019B01AC01C65EDE4F52
S11309C0688179818A819B81CA51D14074D19ED238
S11309D028E132E741E35FE36ED120E030E048E212
S11309E053E404D3D3D2CB0195DDF101EE0FFF1F05
S11309F0EE0FFF1F21E030E02C0F3D1FE20FF31F2D
S1130A00C082D182E282F382A1014F5F5F4F9A01DB
S1130A10ADECBCECC7D31C013694279436942794D0
S1130A2036942794C101880F991F220C331C220C81
S1130A30331C220C331C280E391ECA018219930957
S1130A401C0181E090E027C0FC01EE0FFF1FEE0FB8
S1130A50FF1FA1E0B0E0AC0FBD1FEA0FFB1F4081F8
S1130A60518162817381FC013197EE0FFF1FEE0FFC
S1130A70FF1FEA0FFB1FC080D180E280F3804C1976
S1130A805D099A0122F422273327241B350B293EC2
S1130A9033403CF401968A309105B4F281E090E051
S1130AA002C080E090E0019709F048C027EE35EDE0
S1130AB04FE754E3C501B40199D29B01AC0160E056
S1130AC070E080E89FE3F7D0F62EE72ED82EC92EEB
S1130AD0C25EDE4F2881CE51D140C15EDE4F3881E7
S1130AE0CF51D140C05EDE4F4881C052D140CF5D6E
S1130AF0DE4F5881C152D14079D09F772DEC3CEC28
S1130B004CEC5DE3FAD11816CCF46F2D7E2D8D2DAF
S1130B109C2DB9DDC25EDE4FF882CE51D140C15E5C
S1130B20DE4FE882CF51D140C05EDE4FD882C05242
S1130B30D140CF5DDE4FC882C152D140F89480913C
S1130B40DC009091DD0040E050E020C0FC01E25167
S1130B50FF4F2081E9E2F0E0EC0FFD1FE40FF51FE9
S1130B602083FC0131969F01A5ECBEE41BD396952E
S1130B708795969587956DE0689F9001699F300DE4
S1130B801124CF01821B930B4F5F5F4FFC01E25195
S1130B90FF4F2081222319F04D305105BCF21092F1
S1130BA0DB001092DA00E9E2F0E0EC0FFD1FE40F45
S1130BB0F51F108261E083EC90E056DC61E084ED87
S1130BC090E052DC60E0CE0189964EDC80E090E05B
S1130BD008C0E9E2F0E0EC0FFD1FE80FF91F1082F6
S1130BE001968D309105ACF3789455CE5058BB27BF
S1130BF0AA270ED048C139D130F03ED120F031F4CB
S1130C009F3F11F41EF42EC10EF4E095E7FB24C1BE
S1130C10E92F4AD180F3BA1762077307840795074F
S1130C2018F071F49EF562C10EF4E0950B2EBA2F04
S1130C30A02D0B01B90190010C01CA01A0011124DE
S1130C40FF27591B99F0593F50F4503E68F11A168A
S1130C50F040A22F232F342F4427585FF3CF46951B
S1130C6037952795A795F0405395C9F77EF41F163D
S1130C70BA0B620B730B840BBAF09150A1F0FF0F07
S1130C80BB1F661F771F881FC2F70EC0BA0F621FF3
S1130C90731F841F48F4879577956795B795F795E3
S1130CA09E3F08F0B3CF9395880F08F09927EE0F75
S1130CB09795879508950CD0E6C0DED040F0D5D046
S1130CC030F021F45F3F19F0C7C0511110C1CAC000
S1130CD0EBD098F39923C9F35523B1F3951B550B26
S1130CE0BB27AA2762177307840738F09F5F5F4FFB
S1130CF0220F331F441FAA1FA9F333D00E2E3AF03C
S1130D00E0E830D091505040E695001CCAF729D055
S1130D10FE2F27D0660F771F881FBB1F26173707A4
S1130D204807AB07B0E809F0BB0B802DBF01FF27D4
S1130D3093585F4F2AF09E3F510568F08DC0D7C08D
S1130D405F3FECF3983EDCF3869577956795B7950E
S1130D50F7959F5FC9F7880F911D9695879597F929
S1130D600895E1E0660F771F881FBB1F62177307A2
S1130D708407BA0720F0621B730B840BBA0BEE1FB7
S1130D8088F7E095089598D088F09F5790F0B92F90
S1130D909927B751A0F0D1F0660F771F881F991FCC
S1130DA01AF0BA95C9F712C0B13081F09FD0B1E002
S1130DB008959CC0672F782F8827B85F39F0B93F12
S1130DC0CCF3869577956795B395D9F73EF49095CE
S1130DD08095709561957F4F8F4F9F4F0895E8944C
S1130DE009C097FB3EF490958095709561957F4F6F
S1130DF08F4F9F4F9923A9F0F92F96E9BB2793951D
S1130E00F695879577956795B795F111F8CFFAF42C
S1130E10BB0F11F460FF1BC06F5F7F4F8F4F9F4F5D
S1130E2016C0882311F096E911C0772321F09EE8BB
S1130E30872F762F05C0662371F096E8862F70E021
S1130E4060E02AF09A95660F771F881FDAF7880FFB
S1130E509695879597F9089597F99F6780E870E0CC
S1130E6060E008959FEF80EC089500240A9416161C
S1130E70170618060906089500240A941216130684
S1130E80140605060895092E0394000C11F4882312
S1130E9052F0BB0F40F4BF2B11F460FF04C06F5F2E
S1130EA07F4F8F4F9F4F089557FD9058440F551F04
S1130EB059F05F3F71F04795880F97FB991F61F0D8
S1130EC09F3F79F087950895121613061406551F4F
S1130ED0F2CF4695F1DF08C0161617061806991FBB
S1130EE0F1CF86957105610508940895E894BB27B0
S1130EF066277727CB0197F90895DBD008F48FEFA5
S1130F0008950EF0FAC0AECF6894A6CFD5DFC8F32B
S1130F109923D1F3C6F3DF93CF931F930F93FF92DB
S1130F20C92FDD2788232AF02197660F771F881F92
S1130F30DAF720E030E040E85FEB9FE3883920F007
S1130F40803E30F021968F7752DEE2E2F0E003C07B
S1130F504EDEEFE4F0E0DFD08B01BE01EC01FB2EAE
S1130F606F5771097595771F880B990B3ADF28E144
S1130F7032E741E35FE346D0AF2D9801AE01FF9025
S1130F800F911F91CF91DF9143DE7DCF95DF58F113
S1130F909E5758F19851A0F0E9F0983020F5092EA9
S1130FA09927660F771F881F991F0A94D1F712C0DB
S1130FB0062E672F782F8827985F11F4000C07C03E
S1130FC0993FB4F38695779567959395D9F7611D05
S1130FD0711D811D3EF490958095709561957F4FAC
S1130FE08F4F9F4F0895689482CF80CF0BD04BCF03
S1130FF03CDF28F041DF18F0952309F02DCF32CFE4
S1131000112475CF51DFA0F3959FD1F3950F50E0D4
S1131010551F629FF001729FBB27F00DB11D639FA6
S1131020AA27F00DB11DAA1F649F6627B00DA11D4C
S1131030661F829F2227B00DA11D621F739FB00DF2
S1131040A11D621F839FA00D611D221F749F332762
S1131050A00D611D231F849F600D211D822F762FFB
S11310606A2F11249F5750408AF0E1F088234AF0F8
S1131070EE0FFF1FBB1F661F771F881F9150504044
S1131080A9F79E3F510570F0E7CE31CF5F3FECF3F7
S1131090983EDCF3869577956795B795F795E79530
S11310A09F5FC1F7FE2B880F911D9695879597F941
S11310B00895990F0008550FAA0BE0E8FEEF1616E5
S11310C01706E807F907C0F012161306E407F50738
S11310D098F0621B730B840B950B39F40A2661F0AC
S11310E0232B242B252B21F408950A2609F4A1404F
S11310F0A6958FEF811D811D08959F3F31F091507A
S113110020F4879577956795B795880F911D9695E7
S1131110879597F90895DF93CF931F930F93FF92C9
S1131120EF92DF927B018C01689405C0DA2EEF0107
S113113069DFFE01E894A59125913591459155917A
S1131140AEF3EF0165DDFE019701A801DA9479F7AA
S1131150DF90EF90FF900F911F91CF91DF91089551
S1131160A1E21A2EAA1BBB1BFD010DC0AA1FBB1FA7
S1131170EE1FFF1FA217B307E407F50720F0A21B19
S1131180B30BE40BF50B661F771F881F991F1A9486
S113119069F760957095809590959B01AC01BD01B0
S11311A0CF010895A29FB001B39FC001A39F01D0B6
S11311B0B29F700D811D1124911D0895EF920F931C
S11311C01F93CF93DF93E80147FD02C034E001C0D1
S11311D034E1042E000C550B57FF03C05195419583
S11311E05109E32E022F242FAE0107D0CE01DF9147
S11311F0CF911F910F91EF900895A9E0B0E0E2E044
S1131200F9E030C26A01122FB02E2BE3201720F030
S1131210FF24F394F00E02C02CE3F22E0F2D27E0EE
S1131220AE014F5F5F4F40D1BC014981842F89706B
S1131230813031F0E1FC06C0E0FE06C090E205C05A
S11312409DE203C09BE201C090E05E2D507143FF1C
S11312503CC0911102C083E001C084E0811718F4FE
S1131260212F281B01C020E051110BC0F601822F51
S113127030E2882319F031938150FBCFC20ED11C88
S113128020E0992329F0D6019C93F60131966F0151
S1131290C6010396E2FE0AC03EE4D6013C9341E453
S11312A011964C93119712963C9306C03EE6F601B4
S11312B0308341E641833283FC01322F40E2332301
S11312C009F442C041933150FACF42FF44C0911116
S11312D002C083E001C084E0811718F4212F281B89
S11312E001C020E051110BC0F601822F30E28823A7
S11312F019F031938150FBCFC20ED11C20E0992309
S113130029F0D6019C93F60131966F01C60103962C
S1131310E2FE0BC039E4D6013C933EE411963C93C3
S1131320119736E412963C9307C039E6F6013083F0
S11313303EE6318336E63283FC01322F40E233232A
S113134019F041933150FBCFFC01E20FF11D1082E3
S11313508EEF9FEFA6C021E030E0911102C020E0A3
S113136030E0161617061CF4FB01319602C0E1E0CA
S1131370F0E02E0F3F1FBB2021F0EB2DF0E0319663
S113138002C0E0E0F0E02E0F3F1FE12FF0E02E1747
S11313903F071CF4121B212F01C020E08E2D887101
S11313A059F4F601822F30E2882319F031938150E9
S11313B0FBCFC20ED11C20E0992329F0D6019C93C7
S11313C0F60131966F0151110BC0F601822F90E3A3
S11313D0882319F091938150FBCFC20ED11C20E0D9
S11313E00F2D060F9A81342F307144FF03C09133BF
S11313F009F40150101624F4093018F008E001C073
S113140001E0AB0177FF02C040E050E0FB01E41BC8
S1131410F50BA1E0B0E0AC0FBD1FEA0FFB1F8EE29D
S1131420A82E4B01801A91080B2D10E011950195FF
S113143011094F3FBFEF5B0721F4D601AC9211961F
S11314406D01641775072CF08416950614F48181D8
S113145001C080E3415051093196D60111967D01B6
S11314604017510724F0D6018C936701E2CF64172B
S1131470750739F4963320F4953319F4311101C00A
S113148081E3F6018083F701822F90E2882319F02B
S113149091938150FBCFF701E20FF11D108280E0A0
S11314A090E02996ECE0FAC0283008F027E03327D2
S11314B0DA01990F311D87FD916000966105710570
S11314C039F432602E5F3D9330E32A95E1F70895B5
S11314D09F3F30F080387105610509F03C5F3C5F47
S11314E03D93913008F08068911DDF93CF931F9353
S11314F00F93FF92EF92192F987F9695E92F969567
S11315009695E90FFF27EA52FF4F99273327EE24D8
S1131510FF24A701E70105900894079428F4360FE7
S1131520E71EF81E491F511D660F771F881F991F5C
S11315300694A1F70590079428F4E70EF81E491FB6
S1131540561FC11D770F881F991F661F0694A1F7A8
S11315500590079428F4F80E491F561FC71FD11D84
S1131560880F991F661F771F0694A1F705900794AB
S113157020F4490F561FC71FD81F990F661F771FE6
S1131580881F0694A9F784911095177041F0D69599
S1131590C79557954795F794E7941A95C1F7ECE7E3
S11315A0F0E06894159015913591659195910590A9
S11315B07FE27395E118F10A430B560BC90BD0096E
S11315C0C0F7E10CF11E431F561FC91FD01D7EF446
S11315D0703311F48A95E6CFE894015030F0080F87
S11315E00AF40027021708F4202F2395022F7A33D8
S11315F028F079E37D932A95E9F710C07D932A9525
S113160089F6069497956795379517951794E11879
S1131610F10A430B560BC90BD00998F023957E9120
S113162073957A3308F070E37C932013B8F77E91B6
S113163070617D9330F0839571E37D9370E32A9517
S1131640E1F71124EF90FF900F911F91CF91DF915B
S1131650992787FD909508952F923F924F925F921C
S11316606F927F928F929F92AF92BF92CF92DF92AE
S1131670EF92FF920F931F93CF93DF93CDB7DEB713
S1131680CA1BDB0B0FB6F894DEBF0FBECDBF0994A7
S11316902A88398848885F846E847D848C849B84FE
S11316A0AA84B984C884DF80EE80FD800C811B810C
S11316B0AA81B981CE0FD11D0FB6F894DEBF0FBE3B
S10D16C0CDBFED010895F894FFCFAB
S11316CA43200043230044200044230045200046CD
S11316DA20004623004720004723004120004123DD
S11316EA00422000ECD182429A998A420AD7924255
S11316FA5C8F9B42ECD1A442B89EAE420000B94230
S113170A0000C442F6A8CF420000DC427B14E9423E
S113171AA4F0F642467265652054756E65204D6FD5
S113172A6465002020202020202020202020202042
S10D173A20202000557365723A0068
S9030000FC
